:020000040800F2
:10C000000000022049F0030889D400088BD40008FE
:10C010008DD400088FD4000891D4000800000000DF
:10C02000000000000000000000000000A1ED030877
:10C0300093D400080000000031EE0308E3E7030892
:10C0400099F0030899F0030899F0030895D40008C3
:10C0500099F0030899F0030899F0030899F0030890
:10C0600071D5000899F0030881D5000899F00308FC
:10C0700099F0030899F0030899F0030899F0030870
:10C0800099F0030899F0030899F0030800000000F4
:10C0900000000000000000000000000087D500083C
:10C0A00099F00308ADD4000899F0030899F003084B
:10C0B00099F0030899F0030899F0030899F0030830
:10C0C00099F0030899F0030899F0030899F0030820
:10C0D00099F00308EDD4000899F00308000000006F
:10C0E0008DD50008A1D4000899F0030800000000D5
:10C0F00000000000000000000000000099F00308AC
:10C100000000000099F0030899F0030899F0030873
:10C11000000000000000000000000000000000001F
:10C1200099F0030899F003084DD5000899F0030829
:10C1300099F003080000000000000000000000006B
:10C1400000000000000000000000000099F003085B
:10C1500059D5000899F0030865D5000899F003083F
:10C1600099F0030899F003080000000000000000A7
:10C1700000000000000000000000000000000000BF
:10C180000000000099F0030800000000000000001B
:08C1900099F0030899F003087F
:10C1A000002902D0B0FBF1F0704708B14FF0FF302A
:10C1B00000F01EB80029F8D00246B0FBF1F000FBF9
:10C1C00011217047002902D090FBF1F07047002840
:10C1D000C8BF6FF00040B8BF4FF0004000F008B893
:10C1E0000029F4D0024690FBF1F000FB11217047CA
:10C1F000704700BF81F0004102E000BF83F00043C0
:10C2000030B54FEA41044FEA430594EA050F08BFF1
:10C2100090EA020F1FBF54EA000C55EA020C7FEAB5
:10C22000645C7FEA655C00F0E2804FEA5454D4EB32
:10C230005555B8BF6D420CDD2C4480EA020281EAFC
:10C24000030382EA000083EA010180EA020281EA34
:10C250000303362D88BF30BD11F0004F4FEA013186
:10C260004FF4801C4CEA113102D0404261EB410195
:10C2700013F0004F4FEA03334CEA133302D052421B
:10C2800063EB430394EA050F00F0A780A4F10104D7
:10C29000D5F1200E0DDB02FA0EFC22FA05F2801811
:10C2A00041F1000103FA0EF2801843FA05F35941F7
:10C2B0000EE0A5F120050EF1200E012A03FA0EFC76
:10C2C00028BF4CF0020C43FA05F3C01851EBE371A0
:10C2D00001F0004507D54FF0000EDCF1000C7EEBBD
:10C2E00000006EEB0101B1F5801F1BD3B1F5001FFB
:10C2F0000CD349085FEA30004FEA3C0C04F101041A
:10C300004FEA445212F5800F80F09A80BCF1004F42
:10C3100008BF5FEA500C50F1000041EB045141EAC4
:10C32000050130BD5FEA4C0C404141EB0101013C8D
:10C3300028BFB1F5801FE9D291F0000F04BF01467C
:10C340000020B1FA81F308BF2033A3F10B03B3F14E
:10C3500020020CDA0C3208DD02F1140CC2F10C02DE
:10C3600001FA0CF021FA02F10CE002F11402D8BF3C
:10C37000C2F1200C01FA02F120FA0CFCDCBF41EA08
:10C380000C019040E41AA2BF01EB0451294330BDD7
:10C390006FEA04041F3C1CDA0C340EDC04F11404B4
:10C3A000C4F1200220FA04F001FA02F340EA03008B
:10C3B00021FA04F345EA030130BDC4F10C04C4F1D1
:10C3C000200220FA02F001FA04F340EA03002946B1
:10C3D00030BD21FA04F0294630BD94F0000F83F4FB
:10C3E000801306BF81F480110134013D4EE77FEADE
:10C3F000645C18BF7FEA655C29D094EA050F08BF2A
:10C4000090EA020F05D054EA000C04BF194610460A
:10C4100030BD91EA030F1EBF0021002030BD5FEA4E
:10C42000545C05D14000494128BF41F0004130BD76
:10C4300014F580043CBF01F5801130BD01F00045CA
:10C4400045F0FE4141F470014FF0000030BD7FEA3D
:10C45000645C1ABF194610467FEA655C1CBF0B4638
:10C46000024650EA013406BF52EA033591EA030F4F
:10C4700041F4002130BD00BF90F0000F04BF002147
:10C48000704730B54FF4806404F132044FF000057A
:10C490004FF0000150E700BF90F0000F04BF0021F3
:10C4A000704730B54FF4806404F1320410F0004559
:10C4B00048BF40424FF000013EE700BF42004FEA54
:10C4C000E2014FEA31014FEA02701FBF12F07F43D1
:10C4D00093F07F4F81F06051704732F07F4208BF88
:10C4E000704793F07F4F04BF41F40021704730B58F
:10C4F0004FF4607401F0004521F000411CE700BFDB
:10C5000050EA010208BF704730B54FF000050AE05D
:10C5100050EA010208BF704730B511F0004502D55E
:10C52000404261EB41014FF4806404F132045FEA60
:10C53000915C3FF4D8AE4FF003025FEADC0C18BF09
:10C5400003325FEADC0C18BF033202EBDC02C2F1FB
:10C55000200300FA03FC20FA02F001FA03FE40EA8D
:10C560000E0021FA02F11444BDE600BF70B54FF091
:10C57000FF0C4CF4E06C1CEA11541DBF1CEA13556F
:10C5800094EA0C0F95EA0C0F00F0DEF82C4481EAD7
:10C59000030621EA4C5123EA4C5350EA013518BFF7
:10C5A00052EA033541F4801143F4801338D0A0FBE4
:10C5B00002CE4FF00005E1FB02E506F00042E0FB91
:10C5C00003E54FF00006E1FB03569CF0000F18BF97
:10C5D0004EF0010EA4F1FF04B6F5007F64F540743F
:10C5E00004D25FEA4E0E6D4146EB060642EAC621D2
:10C5F00041EA55514FEAC52040EA5E504FEACE2E3F
:10C60000B4F1FD0C88BFBCF5E06F1ED8BEF1004F41
:10C6100008BF5FEA500E50F1000041EB045170BDBD
:10C6200006F0004646EA010140EA020081EA030101
:10C63000B4EB5C04C2BFD4EB0C0541EA045170BDFD
:10C6400041F480114FF0000E013C00F3AB8014F177
:10C65000360FDEBF002001F0004170BDC4F10004C0
:10C66000203C35DA0C341BDC04F11404C4F1200541
:10C6700000FA05F320FA04F001FA05F240EA02009C
:10C6800001F0004221F0004110EBD37021FA04F6D2
:10C6900042EB06015EEA430E08BF20EAD37070BD8C
:10C6A000C4F10C04C4F1200500FA04F320FA05F0EB
:10C6B00001FA04F240EA020001F0004110EBD370ED
:10C6C00041F100015EEA430E08BF20EAD37070BD5D
:10C6D000C4F1200500FA05F24EEA020E20FA04F336
:10C6E00001FA05F243EA020321FA04F001F00041E5
:10C6F00021FA04F220EA020000EBD3705EEA430E56
:10C7000008BF20EAD37070BD94F0000F0FD101F084
:10C710000046400041EB010111F4801F08BF013CBD
:10C72000F7D041EA060195F0000F18BF704703F0FB
:10C730000046520043EB030313F4801F08BF013D82
:10C74000F7D043EA0603704794EA0C0F0CEA13553E
:10C7500018BF95EA0C0F0CD050EA410618BF52EAF8
:10C760004306D1D181EA030101F000414FF00000FE
:10C7700070BD50EA410606BF1046194652EA43060C
:10C7800019D094EA0C0F02D150EA013613D195EA80
:10C790000C0F05D152EA03361CBF104619460AD1C8
:10C7A00081EA030101F0004141F0FE4141F47001D2
:10C7B0004FF0000070BD41F0FE4141F4780170BDC2
:10C7C00070B54FF0FF0C4CF4E06C1CEA11541DBF27
:10C7D0001CEA135594EA0C0F95EA0C0F00F0A7F829
:10C7E000A4EB050481EA030E52EA03354FEA013156
:10C7F00000F088804FEA03334FF0805545EA131369
:10C8000043EA12634FEA022245EA111545EA106530
:10C810004FEA00260EF000419D4208BF964244F1C7
:10C82000FD0404F5407402D25B084FEA3202B61AE6
:10C8300065EB03055B084FEA32024FF480104FF4BA
:10C84000002CB6EB020E75EB030E22BFB61A75462E
:10C8500040EA0C005B084FEA3202B6EB020E75EBC1
:10C86000030E22BFB61A754640EA5C005B084FEA29
:10C870003202B6EB020E75EB030E22BFB61A7546F6
:10C8800040EA9C005B084FEA3202B6EB020E75EB01
:10C89000030E22BFB61A754640EADC0055EA060EC2
:10C8A00018D04FEA051545EA16754FEA06164FEA05
:10C8B000C30343EA52734FEAC2025FEA1C1CC0D1B1
:10C8C00011F4801F0BD141EA00014FF000004FF03E
:10C8D000004CB6E711F4801F04BF01430020B4F1FF
:10C8E000FD0C88BFBCF5E06F3FF6AFAEB5EB030CB7
:10C8F00004BFB6EB020C5FEA500C50F1000041EBB4
:10C90000045170BD0EF0004E4EEA113114EB5C0480
:10C91000C2BFD4EB0C0541EA045170BD41F4801153
:10C920004FF0000E013C90E645EA060E8DE60CEA5B
:10C93000135594EA0C0F08BF95EA0C0F3FF43BAF78
:10C9400094EA0C0F0AD150EA01347FF434AF95EA2F
:10C950000C0F7FF425AF104619462CE795EA0C0F13
:10C9600006D152EA03353FF4FDAE1046194622E7E0
:10C9700050EA410618BF52EA43067FF4C5AE50EABA
:10C9800041047FF40DAF52EA43057FF4EBAE12E7AA
:10C990004FF0FF3C06E000BF4FF0010C02E000BF8B
:10C9A0004FF0010C4DF804CD4FEA410C7FEA6C5C6E
:10C9B0004FEA430C18BF7FEA6C5C1BD001B050EA11
:10C9C000410C0CBF52EA430C91EA030F02BF90EAFC
:10C9D000020F0020704710F1000F91EA030F58BFBB
:10C9E000994208BF90422CBFD8176FEAE37040F01D
:10C9F000010070474FEA410C7FEA6C5C02D150EABB
:10CA0000013C07D14FEA430C7FEA6C5CD6D152EA75
:10CA1000033CD3D05DF8040B704700BF844610463A
:10CA200062468C461946634600E000BF01B5FFF739
:10CA3000B7FF002848BF10F1000F01BD4DF808ED09
:10CA4000FFF7F4FF0CBF012000205DF808FB00BFDA
:10CA50004DF808EDFFF7EAFF34BF012000205DF834
:10CA600008FB00BF4DF808EDFFF7E0FF94BF012081
:10CA700000205DF808FB00BF4DF808EDFFF7CEFF82
:10CA800094BF012000205DF808FB00BF4DF808EDC1
:10CA9000FFF7C4FF34BF012000205DF808FB00BF92
:10CAA0004FEA4102B2F1E04324BFB3F5001CDCF1D0
:10CAB000FE5C0DD901F0004C4FEAC0024CEA507008
:10CAC000B2F1004F40EB830008BF20F00100704737
:10CAD00011F0804F21D113F13872BCBF01F000403A
:10CAE000704741F480114FEA5252C2F11802C2F16C
:10CAF000200C10FA0CF320FA02F018BF40F00100ED
:10CB00004FEAC1234FEAD32303FA0CFC40EA0C009E
:10CB100023FA02F34FEA4303CCE77FEA625307D1DB
:10CB200050EA01331EBF4FF0FE4040F44000704712
:10CB300001F0004040F0FE4040F40000704700BFAC
:10CB400053B94AB9002908BF00281CBF4FF0FF3174
:10CB50004FF0FF30FFF74CBBADF1080C6DE904CE90
:10CB600033F0D2FEDDF804E0DDE9022304B07047C3
:10CB700010F8012B11F8013B012A28BF9A42F7D087
:10CB8000D01A7047034613F8012B002AFBD1181A5C
:10CB900001387047000000000000000000000000A5
:10CBA00001F0FF01102A2BDB10F0070F08D010F85E
:10CBB000013B013A8B422DD010F0070F42B3F6D162
:10CBC000F0B441EA012141EA014122F007047FF07B
:10CBD00000070023F0E80256083C85EA010586EAD2
:10CBE000010685FA47F5A3FA87F586FA47F6A5FA0E
:10CBF00087F68EB9EED1F0BC01F0FF0102F007021A
:10CC000032B110F8013B013A83EA010313B1F8D1C4
:10CC10000020704701387047002D06BF35460338A5
:10CC2000073815F0010F07D1013015F4807F02BFDE
:10CC3000013015F4C03F0130F0BC0138704700BF2F
:10CC40000348044B834202D0034B03B1184770479B
:10CC50005C0400205C040020000000000548064B36
:10CC60001B1AD90F01EBA301491002D0034B03B1EA
:10CC7000184770475C0400205C040020000000009E
:10CC800010B5064C237843B9FFF7DAFF044B13B114
:10CC90000448AFF300800123237010BD740400200A
:10CCA000000000005C25040808B5054B1BB10549D0
:10CCB0000548AFF30080BDE80840FFF7CFBF00BFD5
:10CCC00000000000780400205C2504081FB5102235
:10CCD0000021684634F067FB144A154B13604FF48B
:10CCE00080310023C2E90113114601241361137638
:10CCF00082F82030D36208460E4A8A62CB60CC614B
:10CD000081F830304C6100F0F7FD08B100F0A8F96F
:10CD10000023064802936946CDE9004400F06CFF09
:10CD200008B100F09DF904B010BD00BF90040020D0
:10CD3000002001400100000F10B5044688B0142205
:10CD4000002103A834F02FFB2268124B9A421ED117
:10CD500003F58C33002101915A6C0F4842F4807224
:10CD60005A645A6C02F480720192019A02911A6B11
:10CD700042F001021A631B6B03F001030293029B52
:10CD80000222032303A9CDE9032301F05BFA08B0D3
:10CD900010BD00BF002001400000024013B5134B3E
:10CDA000002401941A6B42F480021A631B6B03F493
:10CDB00080032246019305213A20019B00F0CAFF1F
:10CDC0003A2000F0F9FF22460521442000F0C2FF7E
:10CDD000442000F0F1FF22460521462000F0BAFF72
:10CDE000462002B0BDE8104000F0E6BF0038024027
:10CDF00010B5002409484FF40051013401F06FFBD5
:10CE0000E30705D430F0F0FF0146054834F032FA6C
:10CE10004FF4FA7031F062FDECE700BF0008024009
:10CE2000642C0408704713F081BC000008B513F0AF
:10CE300083FB044A0448002131F00CFD034B1860C9
:10CE400008BD00BFF03D0408F1CD0008D804002063
:10CE500010B588B01B4B002400941A6B42F00402FA
:10CE60001A631A6B02F004020092009A01941A6B82
:10CE700042F001021A631A6B02F001020192019A58
:10CE800002941A6B42F002021A631B6B03F0020356
:10CE900002932146142203A8029B34F084FA22460E
:10CEA00009484FF4005101F015FB4FF400520123E3
:10CEB000054803A9CDE90323CDE9054401F0C2F9F2
:10CEC00008B010BD003802400008024010B594B010
:10CED0001422002109A834F066FA1422002103A8C4
:10CEE00034F061FA00231F4A0193116C41F0805124
:10CEF0001164126C02F080520192019A1A4A029354
:10CF0000116841F440411160126802F440420292FB
:10CF10000224029A129406220820CDE90E430892B8
:10CF200064230122CDE91003CDE90A220423102253
:10CF300008A80C92139301F005FB08B172B6FEE746
:10CF40000F23CDE903344FF48053CDE9063005902B
:10CF5000032103A801F0D2FC08B172B6FEE714B0B9
:10CF600010BD00BF00380240007000402B4B07B5D9
:10CF70002B4A9A6000F06EFCFFF7A8FF62B6FFF73D
:10CF800067FFFFF70BFFFFF7A1FE00F06BF800F063
:10CF900099F900F055FB00F08FFB224834F0D2F9EC
:10CFA000214834F0CFF9214B009304231A46022183
:10CFB0001F4834F05FF900F08DFC044600F090FC4F
:10CFC000054600F093FC2A4603462146194834F0F2
:10CFD00051F901F065FC044601F02AFD054601F017
:10CFE0002DFD064601F03AFD33462A4600902146C3
:10CFF000114834F03FF91149114834F03BF931F050
:10D00000FDFB10490E4834F035F9FFF70FFF0E49CC
:10D010000B4834F02FF931F003FCFEE700ED00E09F
:10D0200000C00008653A0408802C04086D34040828
:10D030008E2C0408A62C0408BD2C0408E72C040838
:10D04000FF2C04080B2D04081E2D04080268034B56
:10D050009A4201D100F018BC704700BF00000140A7
:10D0600072B6FEE77FB51422002101A834F09BF9C7
:10D070002449254A00237F20C1E90023FF22C1E97A
:10D0800002020846C1E9043300938B6101F079FE86
:10D0900008B1FFF7E5FF1B48002102F0EAF845F26E
:10D0A000500398422AD045F61113ADF804305523A9
:10D0B0008DF8063013480023012201A9CDE904337D
:10D0C00001F0B0FE08B1FFF7CBFF104B0D48009305
:10D0D0000122694601F001FF08B1FFF7C1FF0948CD
:10D0E00000224FF4FA6102F041F808B1FFF7B8FFEF
:10D0F000044845F25002002102F0B6F807B05DF88E
:10D1000004FB00BFDC0400200028004007052123A9
:10D1100010B5044686B018220021684634F043F961
:10D120002268124B9A421ED10223009368464FF4A4
:10D130008073049301F0C0FC08B1FFF791FF0C4B22
:10D140000122C3F83C2E05210022032000F002FE3C
:10D15000032000F031FE29200022052100F0FAFD15
:10D16000292000F029FE06B010BD00BF00280040B5
:10D170000000474210B54C1E012C9CBF00F1FF304F
:10D180000C3100280446B8BFC41C002B00EBA400DF
:10D190001C46B8BFDC1C00EBA4001A2401FB0444AD
:10D1A0000A2194FBF1F4204410440138A0EB43031E
:10D1B000002B09DB072293FBF2F2C2EBC202981AA2
:10D1C00008BF0720C0B210BD0733F1E770B586B0C5
:10D1D00006460D461446002111220DF1070034F0D9
:10D1E000E2F808488DF80460002201A98DF8055086
:10D1F0008DF8064001F016FE08B1FFF731FF06B0CA
:10D2000070BD00BFDC04002007B514238DF8062094
:10D210008DF805108DF80700FFF7ACFF00228DF8A0
:10D22000040001A9044801F058FE08B1FFF718FFF7
:10D2300003B05DF804FB00BFDC04002030B58BB008
:10D2400005460C4628220021684634F0ACF8124806
:10D250004FF4807101F0D2FC08B1FFF701FF00220A
:10D260004FF00043CDE9053201238DF820300A4804
:10D270008DF800504FF4807369468DF801408DF8A9
:10D28000022001920792099301F074FE08B1FFF7A2
:10D29000E7FE0BB030BD00BFDC04002008B5054838
:10D2A0004FF4807101F0AAFC18B1BDE80840FFF707
:10D2B000D7BE08BDDC040020014B01221A70704764
:10D2C000FE0500200F4908B50F4B0B604FF482722A
:10D2D0000023C1E9012302200122C1E904024FF425
:10D2E0000072C1E90623CB600B624B628B62084679
:10D2F0000A23CB6202F048F818B1BDE80840FFF7F6
:10D30000AFBE08BD5C0500200030014070B5064688
:10D3100088B01422002103A834F045F83268224B6B
:10D320009A423FD103F58433002501955A6C1F487A
:10D330001F4C42F480525A645A6C02F4805201929B
:10D34000019A02951A6B42F002021A631B6B03F0FA
:10D3500002030293029B28220223CDE90323032127
:10D360000523CDE9061303A900F06CFF11484FF027
:10D370008063C4E900034023C4E902354FF4806CA4
:10D380004FF40063C4E904C320464FF40053C4E9DA
:10D390000635C4E9085500F065FD08B1FFF760FEE9
:10D3A000B464A66308B070BD0030014000040240C0
:10D3B000FC0400204064024082B00E4B0022009228
:10D3C000596C41F480415964596C01F480410091D9
:10D3D00000990192196C41F0805119641B6C03F0A3
:10D3E00080530193019B0F216FF0010002B000F008
:10D3F000B1BC00BF0038024030B589B000241D4BDD
:10D4000002945A6C42F001025A645B6C03F001030F
:10D4100001A90293054603A8029B01F02FFB01F02E
:10D420001DFB154A154B136040F2E733D360144BD4
:10D43000B0FBF3F0013850601046146194609461C1
:10D4400002F0E8FA044680B90B4802F0CFF904462E
:10D4500058B9192000F0B0FC0F2D09D822462946F2
:10D46000192000F077FC074B1D60204609B030BD45
:10D470000124FAE700380240B40500200000014012
:10D4800040420F004C000020FEE7FEE7FEE7FEE70B
:10D49000FEE77047014801F0CFBE00BFDC0400206A
:10D4A000014801F0F7BB00BFDC04002008B50C48C0
:10D4B000202101F009F80B4A70B9138801339BB29F
:10D4C000138040F6B732934201D905F02BFBBDE83B
:10D4D0000840054802F0C0B900231380F7E700BFF9
:10D4E00000000240FC050020B4050020134802683B
:10D4F0001368DB0610B51CD5836B114C1B685B6889
:10D50000C3F180039BB27F2B28BF7F230021E1540E
:10D510000C490B800C4B012119706FF01003136044
:10D5200002F037FD8021204600F07EF908B1FFF7B8
:10D5300097FDBDE81040014802F05CBE8C0700205A
:10D54000040600200206002001060020014800F029
:10D55000BBBD00BFFC040020014800F0B5BD00BF0A
:10D560002C070020014800F0AFBD00BFCC06002012
:10D57000024B012204201A7000F0BCBFFF050020FE
:10D58000102000F0B7BF202000F0B4BF034B0122F1
:10D590004FF480501A7000F0ADBF00BF00060020AD
:10D5A000044BD3F8882042F47002C3F88820024A62
:10D5B0009A60704700ED00E000C000080268094B67
:10D5C0009A4282B00BD100230193074B1A6C42F0B0
:10D5D00002021A641B6C03F002030193019B02B068
:10D5E000704700BF000400400038024010B50446F8
:10D5F00086B01422002101A833F0D5FE22680D4B1D
:10D600009A4214D1002300930B4B0C481A6B42F042
:10D6100002021A631B6B03F002030093009B0122BA
:10D62000022301A9CDE90123059300F00BFE06B00A
:10D6300010BD00BF0004004000380240000402405A
:10D6400010B500248AB01C22214603A8CDE901446C
:10D6500033F0A9FE164A174B13606323C2E9013465
:10D6600010464FF49673C2E90334946102F0FEF958
:10D6700008B1FFF7F5FC0E4801A9CDE9014402F01D
:10D680000BFB08B1FFF7ECFC00236022CDE903237C
:10D6900007480593082203A9079302F03FFA08B14F
:10D6A000FFF7DEFC0248FFF7A1FF0AB010BD00BF84
:10D6B00084060020000400400B4908B50B4B0B60AA
:10D6C0004FF4E1320023C1E9012308460C22C1E9ED
:10D6D0000333C1E90523CB6102F0D8FB18B1BDE8E3
:10D6E0000840FFF7BDBC08BD8C07002000100140BA
:10D6F00070B5064688B01422002103A833F053FE0B
:10D700003268324B9A425ED1002503F5943301957D
:10D710005A6C42F010025A645A6C02F010020192E4
:10D72000019A02951A6B42F001021A631B6B03F017
:10D7300001030293029B4FF4C0600223CDE903036F
:10D7400003240723224803A9CDE9064300F07AFD0C
:10D75000204CDFF88CC04FF00063C4E900C32046C2
:10D760004FF48063C4E90255C4E90435C4E90655A1
:10D77000C4E9085500F076FB08B1FFF771FC164AC2
:10D78000B463A663154C4FF00063C4E90023402145
:10D7900000234FF480622046C4E90213C4E9042345
:10D7A000C4E90633C4E9083300F05CFB08B1FFF7B5
:10D7B00057FC7463252000220521A66300F0CAFAF5
:10D7C000252000F0F9FA08B070BD00BF001001403C
:10D7D000000002402C070020B8640240CC06002064
:10D7E0008864024002680D4B9A4210B5044614D179
:10D7F0000B4A0C48536C23F0100353644FF4C06180
:10D8000000F0E6FDA06B00F0ABFB606B00F0A8FB46
:10D81000BDE81040252000F0DDBA10BD0010014029
:10D8200000380240000002400A4610B5014608B91F
:10D83000012010BD012AFBD9054C204602F06EFEE6
:10D840000028F5D12268D36843F01003D360F0E7D5
:10D850008C07002008B50B4B1A6842F400721A605E
:10D860001A6842F480621A601A6842F480721A6080
:10D87000032000F05DFA0F20FFF7BEFDFFF79CFDCF
:10D88000002008BD003C0240034A044B11681B788D
:10D890000B441360704700BFD007002048000020F1
:10D8A000014B1868704700BFD007002038B5044608
:10D8B000FFF7F6FF631C1CBF054B1B78054618BF1E
:10D8C000E418FFF7EDFF431BA342FAD338BD00BFB6
:10D8D00048000020014BD3F8100A70470070FF1F6A
:10D8E000014BD3F8140A70470070FF1F014BD3F8A7
:10D8F000180A70470070FF1F38B50446002800F072
:10D900009B80056C25B9FFF717FA656484F83C50D5
:10D91000236CDB0600F18E80236C23F4885323F004
:10D92000020343F002032364444B5A6822F440325A
:10D930005A605A6861680A435A60236821695A68C4
:10D9400022F480725A605A6842EA01225A605A6888
:10D95000A16822F040725A605A680A435A609A6875
:10D96000E16822F400629A609A680A439A60344936
:10D97000A26A8A4252D0996821F0706199609968D0
:10D980000A439A609A68E16A22F040529A609A6863
:10D990000A439A609A6822F002029A609A68217E8D
:10D9A00042EA41029A6094F82020002A3ED05A6848
:10D9B000616A42F400625A605A6822F460425A6016
:10D9C0005A68013942EA41325A60DA6AE16922F45E
:10D9D0007002DA62DA6A013942EA0152DA629A685E
:10D9E00022F400729A609A6894F8301042EA412258
:10D9F0009A609A68616922F480629A609A6800204D
:10DA000042EA81229A606064236C23F0030343F0AE
:10DA100001032364002384F83C3038BD9A6822F067
:10DA200070629A609A6822F04052B2E75A6822F413
:10DA30000062C9E70120EDE70120EEE70023014085
:10DA40000100000F82B00023019390F83C30012BBD
:10DA500056D0012380F83C3003689A68D1070BD573
:10DA60009A68D2071AD4036C43F010030364436C22
:10DA700043F00103436440E09A68224942F0010206
:10DA80009A60214A1268B2FBF1F202EB4202019263
:10DA9000019A002AE4D0019A013AF8E7026C22F4D4
:10DAA000E06222F0010242F4807202645A68510579
:10DAB00041BF026C22F4405242F480520264026C74
:10DAC00012F480521CBF426C22F006024264002213
:10DAD00080F83C206FF022021A600C4A5268D2068D
:10DAE00008D19A6812F0405F02BF9A6842F0804203
:10DAF0009A6002E0064A9342F3D0002002B07047D9
:10DB00000220FBE740420F004400002000230140B8
:10DB10000020014090F83C30012B14D003689A6833
:10DB200022F001029A609B68DB0707D4036C23F4A0
:10DB3000885323F0010343F001030364002380F8BA
:10DB40003C30184670470220704703689A685205B7
:10DB500070B504460D460BD59B68DE0508D5036CF1
:10DB600043F020030364002380F83C30012070BDA3
:10DB7000FFF796FE064623681A6891070CD56FF0EA
:10DB800012021A60226C42F4007222649A6812F047
:10DB9000405F17D00020EAE7681CEDD065B9236824
:10DBA0001B6813F00203E6D1226C84F83C3042F08B
:10DBB000040222640320DAE7FFF772FE801BA8420A
:10DBC000EDD8D8E7227E002AE4D1DA6A12F4700F89
:10DBD00002D09B685A05DDD4236C23F48073236440
:10DBE000236CDB04D6D4236C43F001032364D1E718
:10DBF0000368D86C70470000F7B50023019390F8D4
:10DC00003C30012B054600F08680012380F83C3033
:10DC100008682B688E68092884B233D904EB440263
:10DC2000DF681E3A4FF0070C0CFA02FC27EA0C07DB
:10DC3000DF60DF6806FA02F23A43DA6049680629D3
:10DC400001EB81022DD8596B053A1F26964021EA37
:10DC500006015963596B04FA02F20A435A632F4AC8
:10DC600093420AD1122837D12D4B5A6822F4000270
:10DC70005A605A6842F480025A60002085F83C00DD
:10DC800003B0F0BD1A6900EB400C072707FA0CF748
:10DC900022EA07021A611A6906FA0CF616431E6197
:10DCA000CCE70C294FF01F010BD81E6B233A914093
:10DCB00026EA01011963196B04FA02F20A431A6396
:10DCC000CDE7DE6A413A914026EA0101D962D96A7C
:10DCD00094400C43DC62C2E7124B984201D01128F9
:10DCE000CBD10F4B5A6822F480025A605A6842F432
:10DCF00000025A600B4B9842BFD10B4B0B4A1B687A
:10DD0000B3FBF2F30A2253430193019B002BB4D0DF
:10DD1000019B013BF8E70220B2E700BF0020014071
:10DD200000230140120000104400002040420F0078
:10DD30000749CA6822F4E0620302120403F4E063B4
:10DD4000120C134343F0BF6343F40033CB607047BE
:10DD500000ED00E0164B30B5DC68C4F30224C4F1DA
:10DD60000703251D042B28BF0423062D4FF0FF3584
:10DD70008CBF033C002405FA03F321EA0303A5400A
:10DD800022EA0502A340002843EA0203ACBF00F1E7
:10DD90006040084A4FEA0313B8BF00F00F00DBB23F
:10DDA000AABF00F56140135480F8003330BD00BFB6
:10DDB00000ED00E014ED00E0002807DB4109044A13
:10DDC00000F01F000123834042F82130704700BF5C
:10DDD00000E100E000280CDB4309064900F01F00C9
:10DDE00020330122824041F82320BFF34F8FBFF33D
:10DDF0006F8F704700E100E00138B0F1807F0BD2F7
:10DE00004FF0E023054A5861F02182F823100020EA
:10DE1000072298611A6170470120704700ED00E009
:10DE20004FF0E02304281A690CBF42F0040222F0EC
:10DE300004021A6170470000036810B5084C0246DE
:10DE4000D9B210391820B1FBF0F0205CD06523F472
:10DE50007F7020F003005F2988BF0430906510BDFB
:10DE60002C3E040870B50446FFF71AFD0546002C49
:10DE700060D0022384F835302268002384F83430DF
:10DE8000136823F00103136022681368D8072ED4A7
:10DE900013683248A1691840D4E901352B43E5687D
:10DEA0002B4325692B4365692B43E5690B432B43C2
:10DEB000256A2B430343606A042802BFD4E90B564A
:10DEC00035432B4313605369042823F0070343EAC7
:10DED000000335D1A06AE56A03438DB391B90128E7
:10DEE00020D030F002012BD1E90129D51DE0FFF748
:10DEF000D7FC401B0528C7D920230320636584F87D
:10DF0000350070BDB1F5005F16D1032818D801A106
:10DF100051F820F02BDF0008E9DE00082BDF0008B5
:10DF200025DF0008B5F1C07F0AD1402363650123D6
:10DF300084F835300120E4E70228F6D90328D3D04D
:10DF400053612046FFF778FFE26D3F2393408360E3
:10DF500000200123606584F83530D2E73F8010F05F
:10DF600038B5054620B390F83530022BDCB21DD011
:10DF700003681A6822F0010200241A6021221C6042
:10DF80005C609C60DC601C615A61FFF755FFEA6DC4
:10DF90003F239340C5E90F44C5E91144C5E9134443
:10DFA00083606C6585F8344085F83540204638BD7F
:10DFB0000124FBE770B590F83440866D012C30D019
:10DFC000012480F8344090F83540012C4FF00004D3
:10DFD00025D1022580F8355044650468256825F46C
:10DFE0008025256063608368402B0EBFA260A1601E
:10DFF000E260C26D08BFE1603F239340B3602368D5
:10E0000043F016032360036C1BB1236843F008033D
:10E010002360236843F001032360002070BD80F873
:10E0200034400220FAE770B50446866DFFF738FCED
:10E0300094F83530022B054606D080236365012015
:10E04000002384F8343070BD23681A6822F0160269
:10E050001A605A6922F080025A61226C0AB9A26CD5
:10E060001AB11A6822F008021A601A6822F0010236
:10E070001A602368186810F0010007D1E26D3F2391
:10E080009340B360012384F83530D9E7FFF708FCEB
:10E09000401B0528EDD920230320636584F8350053
:10E0A000CEE790F83530022B03D080234365012062
:10E0B00070470268052380F83530136823F00103A8
:10E0C0001360002070470000F7B5002301935C4BFC
:10E0D000856D1F68C36D2E6808229A40324204463F
:10E0E0000CD001680868400708D5086820F00400D3
:10E0F0000860AA60626D42F00102626501229A40E6
:10E10000324208D021684969090641BFAA60626DA0
:10E1100042F00202626504229A40324208D021682D
:10E120000968880741BFAA60626D42F00402626517
:10E1300010229A40324210D02368196809070CD582
:10E14000AA601A68500337D51B68190301D4236CE1
:10E1500000E0A36C0BB120469847E16D20228A4075
:10E1600032423AD023681868C60636D5AA6094F8B9
:10E170003520052A1A6827D122F016021A605A693A
:10E1800022F080025A61226C0AB9A26C1AB11A6894
:10E1900022F008021A603F238B40AB60012384F811
:10E1A0003530002384F83430236D002B45D02046D1
:10E1B00003B0BDE8F04018471A68D2055EBF1A6880
:10E1C00022F008021A60C2E7500327D51B68190322
:10E1D00031D4636C0BB120469847636D6BB3636DAC
:10E1E000DA0719D522684FF41653B7FBF3F7052366
:10E1F00084F83530136823F001031360019B013369
:10E20000BB42019302D81368DB07F7D4012384F8DB
:10E210003530002384F83430E36CC6E71A6812F412
:10E22000807208D1196821F010011960012384F867
:10E23000353084F83420E36BCCE703B0F0BD00BF89
:10E24000440000202DE9F74FDFF880915D4A00235C
:10E250000D6801249C4004EA0506AC4340F0A3800D
:10E260004D68032705F003044FEA430807FA08FC4A
:10E27000671E012F6FEA0C0C34D8876807EA0C0E72
:10E28000CF6807FA08F747EA0E078760476827EA6A
:10E29000060EC5F300179F4047EA0E074760C768A0
:10E2A00007EA0C0E8F6807FA08F747EA0E07022CF8
:10E2B000C76019D14FEAD30A00EB8A0A03F0070BB3
:10E2C000DAF820704FEA8B0B4FF00F0E0EFA0BFEB0
:10E2D00027EA0E0E0F6907FA0BF747EA0E07CAF88E
:10E2E000207001E0032CDAD1076804FA08F407EA89
:10E2F0000C073C4315F4403F046054D000240194C3
:10E30000D9F8444044F48044C9F84440D9F8444022
:10E3100023F0030707F1804704F4804407F59C3796
:10E32000019403F0030C019CD7F808E04FEA8C0C31
:10E330000F2404FA0CF42EEA040E234CA04239D028
:10E3400004F58064A04237D004F58064A04235D043
:10E3500004F58064A04233D004F58064A04214BF69
:10E360000724042404FA0CF444EA0E04BC60946804
:10E37000F74315F4801F0CBF3C4034439460D468CD
:10E3800015F4001F0CBF3C403443D460546815F4AE
:10E39000003F0CBF3C40344354601468ED0354BF4D
:10E3A0003C40344314600133102B7FF451AF03B071
:10E3B000BDE8F08F0024D5E70124D3E70224D1E79C
:10E3C0000324CFE7003C0140000002400038024037
:10E3D0003B4A2DE9F04F00234FF0010A4FF00F08A0
:10E3E0004FF0030B0AFA03FC3CEA01040CEA0106B5
:10E3F00058D123F0030404F1804404F59C3403F065
:10E400000307A568BF0008FA07F909EA050E2D4DB4
:10E41000A8424CD005F58065A8424AD005F5806534
:10E42000A84248D005F58065A84246D005F580652C
:10E43000A84214BF07250425BD40754513D11568B2
:10E4400025EA06051560556825EA06055560D56874
:10E4500025EA0605D560956825EA06059560A56854
:10E4600025EA0905A56005685C000BFA04F4DE08DE
:10E4700025EA040500EB8606056003F00705376A08
:10E48000AD0008FA05F527EA05073762C56825EAF1
:10E490000405C560456825EA0C054560856825EAE0
:10E4A000040484600133102B9CD1BDE8F08F00255B
:10E4B000C2E70125C0E70225BEE70325BCE700BF90
:10E4C000003C01400000024000690840003818BFCD
:10E4D000012070470AB1816170470904FBE7436975
:10E4E00001EA030221EA030141EA02418161704726
:10E4F00070470000044A5169014208B502D05061DA
:10E50000FFF7F6FF08BD00BF003C01400B4A13684F
:10E5100023F0030303431360094B1A69012942F0F6
:10E5200004021A6105D130BF1A6922F004021A618F
:10E53000704740BF20BF20BFF6E700BF007000401B
:10E5400000ED00E02DE9F341044640B30368DE0727
:10E5500010D423689D075BD42368190700F19D80C0
:10E5600023685A0700F1BD80A369002B40F0248185
:10E5700000202CE08D4B9A6802F00C02042A07D090
:10E580009A6802F00C02082A0BD15B68590208D580
:10E59000864B1B689A03DCD56368002BD9D1012018
:10E5A00015E06368814DB3F5803F13D12B6843F4C8
:10E5B00080332B60FFF774F97C4E054633689B036C
:10E5C000C7D4FFF76DF9401B6428F7D9032002B0C8
:10E5D000BDE8F081B3F5A02F04D12B6843F480236C
:10E5E0002B60E3E72A6822F480322A602A6822F44A
:10E5F00080222A60002BDDD1FFF752F906462B68F6
:10E600009F03A6D5FFF74CF9801B6428F7D9DDE7F7
:10E61000664B9A6812F00C0F07D09A6802F00C0251
:10E62000082A11D15B685D020ED4604A136899070D
:10E6300002D5E368012BB2D11368216923F0F803F6
:10E6400043EAC103136087E7E268594BB2B1012284
:10E650001A60FFF725F9554D06462B689B0707D52D
:10E660002B68226923F0F80343EAC2032B6073E7A7
:10E67000FFF716F9801B0228EFD9A7E71A60FFF70A
:10E680000FF94A4E054633689F077FF565AFFFF7E0
:10E6900007F9401B0228F6D998E76269444B82B11A
:10E6A0000122C3F8802EFFF7FBF8404E0546736F3A
:10E6B0009B073FF555AFFFF7F3F8401B0228F6D94B
:10E6C00084E7C3F8802EFFF7EBF8384E0546736FEA
:10E6D0009F077FF545AFFFF7E3F8401B0228F6D907
:10E6E00074E7324B1A6C12F0805228D101921A6CE6
:10E6F00042F080521A641B6C03F080530193019B1B
:10E7000001272C4D2B68D8051BD5A368274D012B5D
:10E7100027D12B6F43F001032B67FFF7C1F8234E7E
:10E72000054641F28838336F9A0739D5002F3FF4F8
:10E730001BAF1E4A136C23F08053136414E70027A9
:10E74000DFE72B6843F480732B60FFF7A9F80646D8
:10E750002B68D905D9D4FFF7A3F8801B0228F7D975
:10E7600034E7052B04D12B6F43F004032B67D0E76C
:10E770002A6F22F001022A672A6F22F004022A6718
:10E78000002BCAD1FFF78CF841F2883806462B6F70
:10E790009B07CBD5FFF784F8801B4045F7D915E7D9
:10E7A000FFF77EF8401B4045BDD90FE70038024017
:10E7B0000000474200700040374DAA6802F00C028A
:10E7C000082A3ED0022B354B4FF000021A662BD19F
:10E7D000FFF766F806462B6899011FD4D4E9073283
:10E7E0001343626A43EA8213E26A43EA0263A26A5B
:10E7F0005208013A43EA02436B60284B264D01223E
:10E800001A66FFF74DF804462B689A013FF5B0AE43
:10E81000FFF746F8001B0228F6D9D7E6FFF740F8C5
:10E82000801B0228D7D9D1E6FFF73AF804462B68B7
:10E830009B017FF59DAEFFF733F8001B0228F6D948
:10E84000C4E6012B3FF4ABAE6B68E26903F48001D0
:10E8500091427FF4A4AE216A03F03F028A427FF422
:10E860009EAE616A47F6C0721A40B2EB811F7FF418
:10E8700096AEA26A520803F44031013AB1EB024F5E
:10E880007FF48DAEE26A03F07063B3EB026F14BFE6
:10E89000012000209BE600BF0038024000004742F4
:10E8A000134908B58B6803F00C03042B1CD0082B0C
:10E8B0001CD14A684B68496813F4800314BF0D48A3
:10E8C0000D48C1F3881118BF002302F03F02A1FBDD
:10E8D0000001FEF735F9064B5B68C3F301430133D2
:10E8E0005B00B0FBF3F008BD0248FCE70248FAE722
:10E8F0000038024040787D010024F4002DE9F04109
:10E900000D46044610B90120BDE8F081434B1A685A
:10E9100002F007028A4228D321688F072DD4C80746
:10E9200040D43E4B1A6802F00702AA4265D822681A
:10E9300051076BD4130707D5394A2169936823F42B
:10E94000604343EAC1039360FFF7AAFF344B354AA3
:10E950009B68C3F30313D35CD840334B1860334B2D
:10E960001868FEF749FD0020CEE7CAB21A701B688E
:10E9700003F007038B42C6D1CEE7294B11F0040FF9
:10E980001EBF9A6842F4E0529A600E0742BF9A682E
:10E9900042F460429A609A68A06822F0F002024352
:10E9A0009A60BCE762681E4B012A1CD11B6813F4F5
:10E9B000003FA8D01A4EB36823F003031343B3609B
:10E9C000FEF76EFF41F288380746B368626803F0CD
:10E9D0000C03B3EB820FA4D0FEF762FFC01B4045CF
:10E9E000F3D9032090E7911E01291B6802D813F088
:10E9F000007FDEE713F0020FDBE7EAB21A701B6854
:10EA000003F00703AB427FF47EAF90E70449E06870
:10EA10008B6823F4E05303438B608BE7003C024098
:10EA2000003802401C3E0408440000204C00002036
:10EA3000014B1868704700BF44000020044B054A92
:10EA40009B68C3F38223D35C034A1068D8407047A5
:10EA500000380240143E040844000020044B054ADC
:10EA60009B68C3F34233D35C034A1068D8407047B5
:10EA700000380240143E0408440000200F230360C5
:10EA80000B4B9A6802F0030242609A6802F0F002AF
:10EA900082609A6802F4E052C2609B68DB0803F46B
:10EAA000E0530361034B1B6803F007030B607047DF
:10EAB00000380240003C0240036813F0050FF7B530
:10EAC000044638D123689A0730D500230193474B79
:10EAD000474D1A6C42F080521A641B6C03F080534D
:10EAE0000193019B2B6843F480732B60FEF7D8FEE3
:10EAF00006462B68D80549D53C4D2B6F13F440735F
:10EB00004AD1236903F44072B2F5407F374A64D199
:10EB1000916823F0704021F4F81120F44070014313
:10EB20009160116FC3F30B030B43136723681B073B
:10EB300057D4002028E02F4B2C4E00229A66FEF777
:10EB4000AFFE054633681B0118D4D4E902231B0726
:10EB500043EA821362681343C6F88430254B234E80
:10EB600001229A66FEF79CFE054633681F01A9D470
:10EB7000FEF796FE401B0228F7D904E0FEF790FE50
:10EB8000401B0228DED9032003B0F0BDFEF788FE4B
:10EB9000801B0228ADD9F6E7226902F44072934245
:10EBA000AFD02B6F134A0121C2F8401E23F44073EB
:10EBB0000021C2F8401E2B672B6FD907A1D5FEF7A5
:10EBC0006FFE41F2883706462B6F9A0799D4FEF7FD
:10EBD00067FE801BB842F7D9D5E7916821F4F81198
:10EBE0009EE7054B227DC3F8E021A2E700380240F2
:10EBF00000700040000047420010474238B5037FD4
:10EC0000012B04464FF002002ED001232377236806
:10EC10006077CA225A6253225A62B1F5807F9A689D
:10EC200023D122F480729A609A6822F480529A600A
:10EC3000FEF736FE05462368DA68D10706D5FF22BF
:10EC40005A6200200123637720770DE0FEF728FE4B
:10EC5000401BB0F57A7FEED92368FF225A62032366
:10EC6000637700232377032038BD22F400729A6073
:10EC70009A6822F400529A60FEF712FE0546236855
:10EC8000DA689207DBD4FEF70BFE401BB0F57A7F03
:10EC9000F5D9E1E703689A68D20410B504460AD5AD
:10ECA000DA68D10507D5FEF707FB2368DA68D2B228
:10ECB00062F4C072DA609A6892040BD5DB689B0537
:10ECC00008D5204600F0DAFA2268D368DBB263F494
:10ECD0002073D360034B4FF400325A6101236377F2
:10ECE00010BD00BF003C0140026838B5D36823F076
:10ECF000A003D3600446FEF7D3FD05462368DB6816
:10ED00009B0601D5002038BDFEF7CAFD401BB0F5BB
:10ED10007A7FF3D90320F6E7036870B5DC6814F056
:10ED20004004054617D1DA6842F08002DA60FEF747
:10ED3000B7FD06462B68DB685B0600D40CB12046A5
:10ED400070BDFEF7ADFD801BB0F57A7F82BF042356
:10ED50006B770124EEE70024F1E70368DA6822F01C
:10ED6000800210B5DA609B689B06044601D500203E
:10ED700010BDFFF7B9FF0028F9D004236377012005
:10ED8000F6E710B5044600283DD0437F03F0FF02AC
:10ED900013B90277FEF7BCF9022363772368CA220E
:10EDA0005A6253225A622046FFF7B6FF20B1012073
:10EDB0002368FF225A6210BD236820699A6822F4F2
:10EDC000E00222F040029A6062689968024360693A
:10EDD00002430A439A60E2681A611A69A16842EA2A
:10EDE00001421A612046FFF7B8FF0028DFD12368EF
:10EDF000A1691A6C22F480221A641A6C0A431A64FC
:10EE000001236377D4E70120D5E70023092803F124
:10EE1000010203D840EA0310C0B270470A38C0B2FA
:10EE20001346F3E72DE9F041037F012B05460E461B
:10EE30004FF002002BD0012329682B7768773078B8
:10EE40007478B7788B6822BB13F0400308BFF37067
:10EE5000FFF7DBFF80462046FFF7D7FF0446384622
:10EE6000FFF7D3FFF37840EA835343EA084343EACA
:10EE70000424CA234B6253234B622846FFF74CFFFE
:10EE800098B101202B68FF225A6200232B77BDE83E
:10EE9000F08113F0400308BFF3702402F37844EAD2
:10EEA00000443C4344EA8354E3E72A6804F07F3497
:10EEB00024F0FE441460936823F480239360D6E921
:10EEC0000330916803430B4393602846FFF745FFE7
:10EED0000028D6D101236B77D4E72DE9F041037FD9
:10EEE000012B05464FF002001ED001232B776877D7
:10EEF0000E78C8784C7891F802807603B2B146EA71
:10EF0000004343EA080343EA04242B68CA225A62F6
:10EF100053225A622846FFF7FFFEE8B101202B6812
:10EF2000FF225A6200232B77BDE8F081E30641BF40
:10EF300024F010040A34E4B24C70FFF766FF074671
:10EF40002046FFF762FF04464046FFF75EFF40EAB7
:10EF5000060343EA0743D6E72A6824F07F4424F0F7
:10EF6000C00454602846FFF7F8FE0028D6D10123DC
:10EF70006B77D4E72DE9F347554B1E684FF4FA43FE
:10EF8000B6FBF3F64FF47A735E43037F0196012BD1
:10EF900005464FF002004CD001232C682B77687790
:10EFA000087891F8018091F8029091F82070A36898
:10EFB000002A41D113F0400308BFCB70FFF725FFB3
:10EFC00082464046FFF721FF80464846FFF71DFF77
:10EFD00081463846FFF719FFCA694B691343CA785F
:10EFE00043EA825343EA090343EA0A4343EA082314
:10EFF00043EA00638A6948681043CA226262532266
:10F0000062624A6AB2F5807FA26845D122F48072BA
:10F01000A260E268D2B262F4C072E260019A511E4C
:10F020000191E2B9FF23636203236B7700232B77FF
:10F03000032002B0BDE8F08713F040034A6908BF1F
:10F04000CB70CB69134343EA0903CA7843EA004310
:10F0500043EA082343EA825343EA0763CAE7E268C4
:10F06000D107DBD5E3616064A36843F48073A360D8
:10F07000A36843F48053A360164B1A6842F400322D
:10F080001A609A6842F400329A60FF23636200209B
:10F0900001236B772877CCE722F40072A260E26844
:10F0A000D2B262F42072E2600196019A511E01917F
:10F0B000002AB7D0E2689207F7D52362A064A3685C
:10F0C00043F40073A360A36843F40053D3E700BF85
:10F0D00044000020003C0140030903EB830300F0DF
:10F0E0000F0000EB4300C0B2704738B50368986A60
:10F0F000486018691B68C0F30E00C3F3062503F0CF
:10F100007F048860C3F30540C3F3805308704D70DB
:10F110008C70CB7052B9FFF7DFFF08702846FFF7FD
:10F12000DBFF48702046FFF7D7FF8870002038BD0E
:10F1300038B503685B68C3F30740C3F3042503F0E5
:10F140003F04C3F34233C8704D708C700B7052B9DA
:10F15000FFF7C2FFC8702846FFF7BEFF4870204681
:10F16000FFF7BAFF8870002038BD000073B52F4B41
:10F170001D684FF4FA43B5FBF3F54FF47A735D4322
:10F18000037F0195012B04464FF0020016D00123A6
:10F19000237723686077CA205862532058629868A2
:10F1A00010F4806F10D00198461E019640B9FF22DE
:10F1B0005A620323637700232377032002B070BDD4
:10F1C000D86810F0040FEDE7986820F4806098602C
:10F1D000D868C0B260F49060D86001950198451E6F
:10F1E00001950028E3D0D8684007F7D5986820F04B
:10F1F00007009860986802439A600D4A5961116847
:10F2000041F480011160916841F4800191609A6835
:10F2100042F480429A609A6842F480629A60FF22C7
:10F220005A620020012363772077C7E7440000205B
:10F23000003C0140704700000368DB685B0510B5C7
:10F24000044607D5FFF7F6FF2268D368DBB263F404
:10F250009063D360034B4FF480025A6101236377BC
:10F2600010BD00BF003C01400368503343F821202B
:10F2700070470368503353F821007047704700000F
:10F280002DE9F3411C4616460F460546FEF708FBDE
:10F290003444241AFEF704FB244B1B68C3F3CB331E
:10F2A0006343804601932A68936837EA030301D0D9
:10F2B00000202EE0731CF7D0FEF7F2FAA0EB080056
:10F2C000A04229D32B685A6822F0E0025A606A688B
:10F2D000B2F5827F0AD1AA68B2F5004F02D0B2F52A
:10F2E000806F03D11A6822F040021A60AA6AB2F550
:10F2F000005F07D11A6822F400521A601A6842F4BB
:10F3000000521A60012385F85130002385F85030EF
:10F31000032002B0BDE8F081019A019B002A03F1AD
:10F32000FF33019308BF1446BDE700BF440000202F
:10F3300037B51346124A1568124AB5FBF2F54FF479
:10F340007A72554342680195B2F5827F04460BD12B
:10F350000A468021FFF794FF78B1636D43F02003E4
:10F360006365032003B030BD019B33B1019B013BBA
:10F37000019323689B681B06F6D40020F2E700BFC8
:10F380004400002000366E0110B50446002855D018
:10F39000436A002B4ED14268B2F5827F00D0C36130
:10F3A0000023A36294F8513003F0FF0223B984F8DC
:10F3B00050202046FDF7AAFF2168A068A269022319
:10F3C00084F851300B6823F040030B60636800F44D
:10F3D000044003F482730343E06800F400600343D5
:10F3E000206900F002000343606900F0010003435C
:10F3F00002F400700343E06900F038000343206A20
:10F4000000F080000343A06A00F4005003430B6047
:10F41000636A120C03F0100302F004021A434A60FC
:10F42000CB6923F40063CB6100200123606584F87D
:10F43000513010BD0023C0E90433B1E70120F8E7E3
:10F440002DE9F7431F4690F85030012B04460D4636
:10F45000904600F0A080012380F85030FEF720FA9B
:10F4600094F85130012B8146D8B240F09280002DA3
:10F4700061D0B8F1000F5ED0032384F8513000232F
:10F480006365C4E91033A4F83680A363A387E387D8
:10F49000A36826682563B3F5004FA4F8348007D12C
:10F4A000336823F040033360336843F480433360B0
:10F4B0003368E2685B065EBF336843F04003336045
:10F4C000B2F5006F63683FD113B1B8F1010F07D1F6
:10F4D00035F8023BF3602563E38E013B9BB2E38684
:10F4E000E38E9BB2A3B94A4639462046FFF720FF78
:10F4F00000284BD1A36833B901932368DA680192DD
:10F500009B680193019B606D003818BF012012E0D9
:10F5100022689368980705D5236B33F8021BD160E6
:10F520002363D9E7FEF7BCF9A0EB0900B842D7D3B3
:10F53000791CD5D00320012384F85130002384F8AE
:10F54000503003B0BDE8F08313B1B8F1010F08D11A
:10F550002B783373236B01332363E38E013B9BB220
:10F56000E386E38E9BB2002BBDD023689A68920796
:10F5700003D5226B12781A73ECE7FEF791F9A0EB32
:10F580000900B842EDD37B1CEBD0D3E720236365A1
:10F59000B0E70220CFE70220D3E7000038B590F8AB
:10F5A0005030012B044654D0012380F8503090F89D
:10F5B0005130012BDDB24AD1002931D0002A2FD0A1
:10F5C000032380F8513000234365C0E91033C2861D
:10F5D00083638387C38783688286B3F5004F02689D
:10F5E000016307D1136823F040031360136843F4E9
:10F5F00080431360A06C184B0364184BC363184B13
:10F60000C36400230365E38E0C329BB2FEF7D2FC89
:10F6100058B1636D43F010036365012384F85130E2
:10F62000002384F85030284638BD23681A685206F3
:10F630005EBF1A6842F040021A605A6842F0200227
:10F640005A605A6842F002025A600025E8E7022533
:10F65000E6E70225E7E700BF69F6000897F600082D
:10F6600075F600087047704708B5806BFFF7FBFF21
:10F6700008BD7047806B026808B5536823F0030328
:10F680005360436D43F010034365012380F851300C
:10F69000FFF7EFFF08BD37B50546846BFEF700F9AD
:10F6A0002B681B68DB05024626D42368596821F0C5
:10F6B00020015960596821F00201596020466421F7
:10F6C000FFF736FE18B1636D43F020036365A3684E
:10F6D00033B901932368DA6801929B680193019B17
:10F6E0000023E386012384F85130636D23B1204663
:10F6F000FFF7BFFF03B030BD2046FFF7B3FFF9E7C8
:10F70000036A23F0010370B50362036A44688269E7
:10F710000D6822F073022A438D6823F002032B4305
:10F720000A4DA8420BD1CD6823F008032B43D1E941
:10F73000055624F44074354323F004032C434460FD
:10F7400082614A684263036270BD00BF00000140ED
:10F75000036A23F4807370B50362036A4468C26964
:10F760000D6822F073022A438D6823F4007343EA84
:10F7700005230B4DA8420DD1CD6823F4006343EA65
:10F780000523D1E9055624F44054354323F480631E
:10F7900044EA05144460C2614A68C263036270BDF2
:10F7A00000000140036A23F4805330B50362036A0A
:10F7B0004468C2690D6822F4E64242EA05228D6877
:10F7C00023F4005343EA0533064DA84202BF4D69B6
:10F7D00024F4804444EA85144460C2614A680264A7
:10F7E000036230BD000001407047000090F83D30DA
:10F7F000012B28D1022380F83D300368DA6842F0FB
:10F800000102DA60114A934212D0B3F1804F0FD057
:10F81000A2F57C4293420BD002F58062934207D05E
:10F8200002F58062934203D002F59A32934204D1EA
:10F830009A6802F00702062A03D01A6842F0010211
:10F840001A60002070470120704700BF000001408F
:10F85000704770477047704703681A69910710B581
:10F8600004460ED5DA6892070BD56FF002021A61D2
:10F87000012202779B699B0777D0FFF7EAFF0023FD
:10F88000237723681A69500710D5DA6851070DD518
:10F890006FF004021A61022222779B6913F4407F01
:10F8A000204668D0FFF7D5FF0023237723681A6925
:10F8B00012070FD5DA6810070CD56FF008021A612D
:10F8C00004222277DB69990720465AD0FFF7C1FF4F
:10F8D0000023237723681A69D20610D5DA68D00688
:10F8E0000DD56FF010021A6108222277DB6913F43C
:10F8F000407F20464BD0FFF7ACFF002323772368DF
:10F900001A69D10708D5DA68D20705D56FF0010268
:10F910001A612046FDF79AFB23681A69100608D57C
:10F92000DA68110605D56FF080021A61204600F0F2
:10F93000EAF923681A69520608D5DA68500605D52F
:10F940006FF040021A612046FFF785FF23681A69AD
:10F95000910622D5DA6892061FD56FF02002204664
:10F960001A61BDE8104000F0CDB9FFF771FF2046E5
:10F97000FFF770FF83E7FFF76BFF2046FFF76AFF93
:10F9800092E7FFF765FF2046FFF764FFA0E7FFF768
:10F990005FFF2046FFF75EFFAFE710BD1B4A03681D
:10F9A00090420ED0B0F1804F0BD0A2F57C42904235
:10F9B00007D002F58062904203D002F58062904247
:10F9C00008D14A6823F070031343CA6823F44073D4
:10F9D00013430AE00E4A9042F7D002F5806290424B
:10F9E000F3D002F580629042EFD04A6923F08003A1
:10F9F000134303608B68C3620B688362034B9842B6
:10FA000004BF0B6903630123436170470000014099
:10FA10000040014010B5044630B390F83D3003F08B
:10FA2000FF021BB980F83C20FFF7DEFE02232068AE
:10FA300084F83D30211DFFF7B1FF012384F84630E3
:10FA4000002084F83E3084F83F3084F8403084F859
:10FA5000413084F8423084F8433084F8443084F8EC
:10FA6000453084F83D3010BD0120FCE710B5044658
:10FA700030B390F83D3003F0FF021BB980F83C2012
:10FA8000FDF79CFD0223206884F83D30211DFFF71F
:10FA900085FF012384F84630002084F83E3084F846
:10FAA0003F3084F8403084F8413084F8423084F8A4
:10FAB000433084F8443084F8453084F83D3010BD3C
:10FAC0000120FCE7036A23F0100370B50362036AA8
:10FAD000446882690D6822F4E64242EA05228D6894
:10FAE00023F0200343EA05130B4DA8420DD1CD6846
:10FAF00023F0800343EA0513D1E9055624F440645A
:10FB0000354323F0400344EA8504446082614A6837
:10FB10008263036270BD00BF0000014038B590F8F9
:10FB20003C30012B04464FD00120082A84F83C00C9
:10FB30003AD006D8BAB1042A26D0002384F83C3043
:10FB400038BD0C2AF9D12068FFF72CFEC3690A6979
:10FB500043F40063C361C36923F48063C361C36971
:10FB600043EA02232EE02068FFF7CAFD83690A6991
:10FB700043F008038361836923F00403836183698D
:10FB8000134383610020D8E72068FFF79BFF836958
:10FB90000A6943F400638361836923F480638361AA
:10FBA000836943EA0223ECE72068FFF7D1FDC369CC
:10FBB0000A6943F00803C361C36923F00403C36106
:10FBC000C3691343C361DDE70220B9E7036A10B5D7
:10FBD00001F01F0101248C4023EA04030362036A3D
:10FBE0008A401A43026210BD08B529B990F83E3028
:10FBF000012B1DD001202EE0042907D190F83F30C1
:10FC0000012BF7D1022380F83F3014E0082907D1F7
:10FC100090F84030012BEDD1022380F840300AE00B
:10FC200090F84130012BE5D1022380F8413002E009
:10FC3000022380F83E3000680122FFF7C7FF134B14
:10FC4000984209D0B0F1804F0BD1836803F00703CD
:10FC5000062B15D1002008BD436C43F400434364D8
:10FC6000F3E70B4B9842F0D003F580639842ECD059
:10FC700003F580639842E8D003F59A339842E4D0C4
:10FC8000036843F001030360E4E700BF00000140A4
:10FC900000040040FFF7A8BF30B590F83C30012BBE
:10FCA00002464FF002002AD0136882F83D005C68DB
:10FCB0000D68986824F070042C435C60104CA342DB
:10FCC00012D0B3F1804F0FD0A4F57C44A3420BD0E7
:10FCD00004F58064A34207D004F58064A34203D0F6
:10FCE00004F59A34A34204D1496820F0800001430E
:10FCF00099600123002082F83D3082F83C0030BD3D
:10FD00000000014070477047026802F10C0353E89D
:10FD1000003F23F490730C3242E80031026800295E
:10FD2000F2D102F1140353E8003F23F0010302F182
:10FD3000140C4CE800310029F3D1036B012B0BD1DB
:10FD400002F10C0353E8003F23F0100302F10C0C06
:10FD50004CE800310029F3D1202380F83E30002305
:10FD6000036370470268C16838B5136923F44053D0
:10FD70000B431361054683680069D16803436869D2
:10FD80000343E86921F4164121F00C0103430B43BE
:10FD9000D3605369A96923F440730B4353611F4B2C
:10FDA0009A4203D003F580639A4224D1FEF756FEAF
:10FDB000EA691921B2F5004FD5E90043A0FB010122
:10FDC0001CD1DA184FF0000545EB0503FCF7B8FE2F
:10FDD0006422B0FBF2F102FB1103DB003233B3FB10
:10FDE000F2F303F007025B0002EB011203F4F87375
:10FDF0001344A36038BDFEF721FED9E79A009B0F9C
:10FE0000FCF79EFE6422B0FBF2F102FB11031B0122
:10FE10003233B3FBF2F303EB0113EAE700100140C6
:10FE2000F8B504460E4617461D462268136836EAA2
:10FE3000030301D1002028E06B1CF7D025B1FDF7AA
:10FE40002FFDC01B8542F0D2226802F10C0353E85B
:10FE5000003F23F4D0730C3242E8003021680028C0
:10FE6000F2D101F1140353E8003F23F0010301F143
:10FE7000140040E80032002AF3D1202384F83D30FA
:10FE800084F83C2084F83E300320F8BD10B50446C9
:10FE900040B390F83D3003F0FF021BB980F83C20DE
:10FEA000FDF726FC2268242384F83D30D36823F430
:10FEB0000053D3602046FFF755FF23681A6922F4E8
:10FEC00090421A615A6922F02A025A61DA6842F4B1
:10FED0000052DA6000202023206484F83D3084F84A
:10FEE0003E3010BD0120FCE72DE9F843984690F81C
:10FEF0003D30202B04460E46174648D1002944D0F9
:10FF0000002A42D090F83C30012B40D0012380F8E9
:10FF10003C3000252123056480F83D30FDF7C0FC0E
:10FF2000A368A784B3F5805F8146E78403D1236982
:10FF30000BB935461E46002384F83C30E38C9BB257
:10FF400053B943464A4640212046FFF769FF50B95E
:10FF5000202384F83D3007E043464A46802120466E
:10FF6000FFF75EFF10B10320BDE8F88322684EB9A9
:10FF700035F8023BC3F308035360E18C013989B2C1
:10FF8000E184DBE716F8013BF6E70120ECE702200D
:10FF9000EAE710B50268536990F83D10212904463C
:10FFA00020D119061ED502F1140353E8003F23F0B7
:10FFB000800302F1140040E800310029F3D1606BA6
:10FFC00008B1FEF730F8226802F10C0353E8003F55
:10FFD00023F0C0030C3242E800310029F3D1202382
:10FFE00084F83D302268536994F83E10222914D1D8
:10FFF0005B0612D502F1140353E8003F23F04003DF
:020000040801F1
:1000000002F1140040E800310029F3D1A06B08B1DF
:10001000FEF709F82046FFF777FE002010BD704775
:1000200070477047704708B5806B03685A6990F84D
:100030003D10212912D1120610D50022C28403F1ED
:100040000C0252E8002F22F0C00203F10C0C4CE825
:1000500000210029F3D1202280F83D205B6990F82F
:100060003E20222A05D15B0603D50023C385FFF776
:100070004BFE036C43F010030364FFF7D3FF08BD8E
:1000800008B5806B0023C385C384FFF7CBFF08BD91
:100090007047806B08B5036B012B04D1818D490833
:1000A000FFF7F6FF08BDFFF7BCFFFBE708B5034607
:1000B000806B1B681B6813F4807337D1C38502689B
:1000C00002F10C0353E8003F23F480730C3242E842
:1000D000003103680029F2D103F1140252E8002F25
:1000E00022F0010203F1140C4CE800210029F3D1A5
:1000F00003F1140252E8002F22F0400203F1140C25
:100100004CE800210029F3D1202280F83E20026B28
:10011000012A0BD103F10C0252E8002F22F0100249
:1001200003F10C0C4CE800210029F3D1036B012BE7
:1001300003D1818DFFF7ACFF08BDFFF771FFFBE72F
:1001400090F83E30222B07B541D181680268836A5E
:10015000B1F5805F3ED1016900293ED15268C2F3FA
:10016000080223F8022B8362C38D013B9BB2C38537
:10017000002B2CD10268D16821F02001D160D16818
:1001800021F48071D160516921F001015161202277
:1001900080F83E20026B012A026828D1036302F135
:1001A0000C0353E8003F23F0100302F10C0C4CE861
:1001B00000310029F3D11368DB0605D501911368DE
:1001C000019353680193019B818DFFF761FF03B099
:1001D0005DF804FB39B9016929B95268D2B21A70C5
:1001E000836A0133BFE7526802F07F02F7E7FFF747
:1001F00017FFECE703681A6873B51607D9685D69DD
:10020000044608D1960668D58D0666D502B0BDE8CD
:100210007040FFF795BF05F0010001F490750543AC
:100220005BD0D60705D5CD0542BF236C43F0010353
:100230002364530704D518B1236C43F002032364ED
:10024000960704D518B1236C43F004032364150703
:1002500007D501F0200303431EBF236C43F00803BE
:100260002364236C002B32D0920604D58B0602D572
:100270002046FFF765FF26687369226C03F0400390
:1002800002F0080253EA0205204622D0FFF73CFDA7
:1002900073695E0618D5226802F1140353E8003F23
:1002A00023F04003143242E800310029F3D1A06B5F
:1002B00050B1724B0365FDF7F4FE40B1A06B036DC6
:1002C00002B0BDE8704018472046FFF7ABFE02B011
:1002D00070BDFFF7A7FE2564F9E7206B012840F009
:1002E0009180D50640F18E80C80640F18B800022B7
:1002F00001921A6801925A680192019A5A6952064B
:100300004CD5A16B0A68526892B2002ADFD0A08D4A
:100310009042DCD9E285CA69B2F5807F36D003F11C
:100320000C0252E8002F22F4807203F10C0040E826
:1003300000210029F3D103F1140252E8002F22F02A
:10034000010203F1140040E800210029F3D103F178
:10035000140252E8002F22F0400203F1140040E89A
:1003600000210029F3D1202284F83E20216303F1EB
:100370000C0252E8002F22F0100203F10C0040E8BA
:1003800000210029F3D1A06BFDF74DFEE38DA18D77
:10039000C91A89B22046FFF77BFE98E7E28DE18D0E
:1003A00089B292B2002992D0A18D891A89B200290E
:1003B0008DD003F10C0252E8002F22F4907203F169
:1003C0000C0545E800200028F3D103F1140252E89F
:1003D000002F22F0010203F1140545E80020002857
:1003E000F3D1202284F83E20206303F10C0252E86E
:1003F000002F22F0100203F10C0545E80020002830
:10040000F3D1C7E7160628D50D0626D594F83D206A
:10041000212A7FF45CAFA168226AB1F5805F17D111
:100420002169A9B932F8021BC1F30801596022629F
:10043000E28C013A92B2E284002A7FF448AFDA6893
:1004400022F08002DA60DA6842F04002DA603EE7C9
:10045000511C216212785A60EAE750067FF537AFE7
:100460004A067FF534AFDA6822F04002DA602023D2
:1004700084F83D302046FFF7D2FD28E781000108CF
:1004800073B51346002582852222044605648162E5
:1004900080F83E20806B1E4AC2631E4A26680264B2
:1004A0001D4AC0E913250A46311DFDF783FD236867
:1004B00001951A6801925A680192019A226984F89A
:1004C0003C505AB103F10C0252E8002F42F4807202
:1004D00003F10C0040E800210029F3D103F11402DC
:1004E00052E8002F42F0010203F1140040E800211D
:1004F0000029F3D103F1140252E8002F42F0400228
:1005000003F1140141E800200028F3D102B070BDCE
:10051000AD000108930001082700010870B590F8AC
:100520003E60202E10D169B162B190F83C40012CA0
:100530000AD0012480F83C4000240463FFF7A0FFA8
:10054000204670BD0120FCE70220FAE708B5042030
:10055000FDF766FC064B1A784FF47A73B3FBF2F39F
:10056000044A1068B0FBF3F0BDE80840FDF744BC56
:10057000480000204400002070B54FF0E0246423C0
:100580006569A16958430023A2698A42FCD02BBF48
:10059000AE1A5B189B199B1A28BF5B18834200D3C5
:1005A00070BD1146F0E738B505460024A54200D8D5
:1005B00038BD4FF47A70FFF7DFFF0134F6E7000033
:1005C00010B50B4800F0F9FA7121094800F08DFBD5
:1005D000074800F032FB064800F0B2FB044604482E
:1005E00000F06AFB024800F008FB204610BD00BF87
:1005F0005000002013B5002301931E4B1E481A6BB8
:1006000042F002021A631B6B03F002030193019B89
:1006100000F087FC2820FFF7C6FFFFF7D1FF10F09E
:10062000080424D1144800F0C8FA7021124800F0E0
:100630005CFB114800F001FBBE210F4800F055FBA8
:100640000D4800F0FAFA08210B4800F04EFB0A486A
:1006500000F0F3FA2146084800F047FB064800F096
:10066000ECFA054800F0C9FA0A20FFF79CFF0020C9
:1006700002B010BD00380240500000202DE9F047C4
:1006800006464C480D4600F098FA7021494800F0A3
:100690002CFB484800F0D1FAAC21464800F025FB7D
:1006A000444800F0CAFA3321424800F01EFB41489A
:1006B00000F0C3FA00213F4800F017FB3D4800F06E
:1006C000BCFA3C4800F099FA5020FFF76CFF052473
:1006D000FFF776FF03060AD50CB9012067E0052075
:1006E000013CFFF760FFE4B2FFF76AFFF0E7002C80
:1006F000F3D0304800F061FA71212E4800F0F5FA8D
:100700002C4800F09AFA2B4800F01AFB294800F018
:10071000BBFA284800F014FB8246264800F0B4FAE1
:10072000244800F00DFB0446224800F0ADFA2148B1
:1007300000F006FB80461F4800F0A6FA1D4800F0B6
:10074000FFFA81461B4800F09FFA1A4800F0F8FAB9
:1007500044EA0A240746174800F0AEFA48EA04249F
:10076000144800F04AFA24094FF47A735C43240DCC
:1007700007EE904AF8EEE77AB2EE047AC7EE876A9F
:1007800008F00F0849EA082947EA09274FF4FA63F5
:100790005F433F0DA7F5FA77002007EE907AF8EE59
:1007A000677AC6ED006AC7EE876AC5ED006ABDE8E4
:1007B000F08700BF5000002007B50B460092502183
:1007C0000246034800F00FFB03B05DF804FB00BFD6
:1007D0005C00002007B50B460092502102460348FA
:1007E00000F060FB03B05DF804FB00BF5C0000207C
:1007F00082B000230193074B07481A6B42F00102B5
:100800001A631B6B03F001030193019B02B000F01C
:1008100088BB00BF003802405C000020FFF7E8BF43
:1008200013B50A20FFF7BFFE01AA02210020FFF73F
:10083000D1FF9DF80430552B03D19DF80530AA2B2C
:1008400021D04AF655230A20ADF80430FFF7ABFE5D
:1008500001AA02210020FFF7AFFF00240A20ADF813
:100860000440FFF7A0FE01AA02212046FFF7B2FFD5
:100870009DF80430552B08D19DF80500AA3818BF03
:10088000012002B010BD0020FBE70120F9E701299B
:10089000F8B507460D46164602D801242046F8BD95
:1008A000FFF7BEFF04460028F7D10A20FFF77BFEC2
:1008B0003A4631462846FFF77FFFEFE70129F8B5B2
:1008C00007460D46164602D801242046F8BDFFF71C
:1008D000A7FF04460028F7D10A20FFF764FE3A4636
:1008E00031462846FFF776FFEFE710B500EB8102AF
:1008F0000023904203D1B3FBF1F0C0B210BD50F819
:10090000044B2344F5E700002DE9F0410746294850
:10091000284C0D4600F0D4F810B1204600F0F4F851
:100920002548DFF8948000F0CBF810B1404600F085
:10093000EBF82248214E00F0C3F810B1304600F029
:10094000E3F81C48394600F0C1F829461A481C4D06
:1009500000F0BCF8D4E90323934228D3A268934261
:1009600025D36268934222D9626993421FD3A26958
:1009700093421CD3E269934219D9124AD8F8101055
:100980001388C81AB0F5D57F11D3118089B253806E
:10099000C91A0A484EF6602393FBF1F100F096F86D
:1009A000F36923B108480721FFF79FFF28702878D3
:1009B000BDE8F0811C080020FC070020DC070020B7
:1009C000D4070020D6070020E0070020024624219B
:1009D000014800F03ABA00BF6800002002460B460A
:1009E0000148242100F0D3B9680000200020FFF75F
:1009F000EDBF10B50524FFF7F9FF362800D01CB96C
:100A0000B4FA84F0400910BD6420013CFCF74EFFAD
:100A1000E4B2F0E713B500230193164B16481A6BA6
:100A200042F002021A631B6B03F002030193019B65
:100A300000F077FAFFF7DDFF0446B8B90146012060
:100A4000FFF7CCFF21460820FFF7C8FF402109200F
:100A5000FFF7C4FF7F210A20FFF7C0FF47210D20C9
:100A6000FFF7BCFF21460E20FFF7B8FF204602B07B
:100A700010BD00BF003802406800002010B5FFF72D
:100A8000B8FF044618B908210120FFF7A7FF204648
:100A900010BD10B5FFF7ADFF044618B9014601209F
:100AA000FFF79CFF204610BD10B52920FFF78EFFF1
:100AB00004022820FFF78AFFA4B2204380B210BDB1
:100AC00090F90200C31F58425841704710B490F982
:100AD0000240072C04D10B485DF8044B30F032BCC7
:100AE00090F901300722013393FBF2F2C2EBC2020C
:100AF0009B1A437000EB83030134596084705DF8E6
:100B0000044B7047312D040810B590F9024003469C
:100B100024B90A4830F016FC204610BD90F9002098
:100B200000EB820101324868072192FBF1F1C1EB31
:100B3000C101521A013C1A709C70EEE7502D040856
:100B40004268438991690B439361704710B504462D
:100B500086B01022002102A830F025FC23890193E1
:100B600001220223206801A9CDE90323FDF76AFBD6
:100B700006B010BD7FB5002303930593038901934D
:100B8000112302930068022301A90493FDF75AFB85
:100B900007B05DF804FB0389026819B191690B4342
:100BA000936170471B04FBE708B501890068FDF7F6
:100BB0008BFC431E5842584108BD02680389916965
:100BC0000B4310B5044693610220FFF7D5FC204685
:100BD000FFF7B6FF0120FFF7CFFC238922681B0433
:100BE00093610120FFF7C8FC638962681B04BDE8BC
:100BF000104093610120FFF7BFBC4389426810B5E4
:100C00001B04044693610220FFF7B6FC2389226887
:100C10001B0493610120FFF7AFFC2046FFF790FF14
:100C20000120FFF7A9FC2268238991690B43BDE8E5
:100C3000104093610120FFF79FBC70B50446FFF799
:100C400085FF2046FFF77CFF05252046FFF7ACFF18
:100C5000064650B92046FFF78DFF638962681B0482
:100C600093610220FFF788FC0CE0013D0120ADB24A
:100C7000FFF782FC002DE8D12046FFF77BFF2046DE
:100C8000FFF7BBFF304670BD038902681B0410B537
:100C9000044693610120FFF76FFC2046FFF750FFE9
:100CA0000120FFF769FC638962681B04BDE81040FE
:100CB00093610120FFF760BC0268038991690B43CF
:100CC00010B5044693610120FFF756FC2046FFF75C
:100CD00037FF0120FFF750FC638962681B04BDE801
:100CE000104093610220FFF747BC70B504460D46E3
:100CF0000826638962681B0493610220FFF73CFCAD
:100D000005F080012046FFF746FF0120FFF734FC85
:100D10000120FFF731FC2046FFF712FF013E0120C2
:100D2000FFF72AFC6D0016F0FF06EDB2E1D16389F2
:100D300062681B04BDE8704093610220FFF71CBC91
:100D400070B50446FFF702FF082600256389626834
:100D50001B0493610220FFF70FFC2046FFF7F0FE13
:100D60000120FFF709FC2046FFF71EFF6D00EDB2E2
:100D7000013E054316F0FF06EDB2E7D163896268D4
:100D80001B0420469361FFF7F5FE284670BDF8B5B9
:100D90000D4604466D0017461E46FFF70EFF05F090
:100DA000FE012046FFF7A1FF2046FFF746FF05465C
:100DB00020B12046FFF721FF2846F8BD39462046DE
:100DC000FFF793FF2046FFF738FF31462046FFF735
:100DD0008CFF2046FFF731FF2046FFF70EFF012072
:100DE000FFF7CAFBE8E7F8B50E46044617461D466E
:100DF000FFF7E3FE710001F0FE012046FFF775FFEB
:100E00002046FFF71AFF064620B12046FFF7F5FE01
:100E10003046F8BD39462046FFF767FF2046FFF70A
:100E20000CFF069F3D44AF4206D12046FFF7E5FE8A
:100E30000120FFF7A1FBEBE7204617F8011BFFF7A6
:100E400054FF2046FFF7F9FEEDE770B50D466D0043
:100E50000446EDB21646FFF7B0FE29462046FFF7DE
:100E600044FF2046FFF7E9FE31462046FFF73DFFED
:100E70002046FFF7E2FE2046FFF79FFE691CC9B23D
:100E80002046FFF732FF2046FFF7D7FE2046FFF748
:100E900057FF05462046FFF70FFF2046FFF7ADFE40
:100EA000284670BD2DE9F8430D466D000446EDB2AD
:100EB00091469846089EFFF780FE29462046FFF798
:100EC00014FF2046FFF7B9FE074628B12046FFF77A
:100ED00094FE3846BDE8F88349462046FFF705FFF3
:100EE0002046FFF7AAFE2046FFF767FE691CC9B23D
:100EF0002046FFF7FAFE2046FFF79FFE3D4608F129
:100F0000FF394545204602D1FFF7D6FEDEE7FFF761
:100F100017FFA945705502DD2046FFF7B5FE0135E4
:100F2000EFE710B586B000230593038901930446CB
:100F30000123CDE9023301A9022300680493FDF7E0
:100F400081F963896068019301A9FDF77BF906B017
:100F500010BD000010B5002486B0CDE90444194B43
:100F600000941A6B184842F001021A631B6B03F0DD
:100F7000010300932022009B4FF40413CDE90123C9
:100F800001A901230393FDF75DF94FF488131021A4
:100F9000CDE901130C48039401A9FDF753F922464A
:100FA00021461720FCF7D6FE1720FCF705FF224646
:100FB00021460A20FCF7CEFE0A20FCF7FDFE06B013
:100FC00010BD00BF003802400000024038B5274D78
:100FD000274CB0B301232B70002323702548202118
:100FE000FDF772FA98BB03202DF078FC21482021F0
:100FF000FDF76AFA90B31F481021FDF765FA80B338
:101000000223237000232B701A482021FDF75CFA7D
:1010100050B318481021FDF757FA28BB03202DF0D4
:101020005DFC14482021FDF74FFAE8B1114810216A
:10103000FDF74AFA0346B8B9012220782A702370D6
:1010400013E02B78002BC9D123786BB1DCE709487A
:101050001021FDF739FA0028C5D1F5E701232370E7
:10106000C9E72378002BCDD1002038BD74000020C3
:101070003C0800200000024010B586B01422002178
:1010800001A830F090F900240E4B00941A6B0E4822
:1010900042F001021A631B6B03F001030093224626
:1010A0004FF48071009BFDF715FA01234FF4807215
:1010B000054801A9CDE90123CDE90334FDF7C2F8C4
:1010C00006B010BD00380240000002400248012274
:1010D0004FF48071FDF7FEB9000002400248002283
:1010E0004FF48071FDF7F6B9000002402DE9F84396
:1010F0000C4617461E46013A133314319BB292B286
:1011000089B2BDF82090804600F052F9B4420BD36A
:10111000BDE8F883484600F025F90135ADB2BD427F
:10112000F8D30134A4B2F1E74546F8E738B5141A0C
:101130005D1A01340135ADB2A4B26C4314330F4DC6
:1011400014319BB289B200F033F92A6804994FF444
:101150000063EB60136843F4006313602846A2B297
:10116000FEF71CFA064B1A685368002BFCD12A685C
:10117000EB60136823F40063136038BD5C05002046
:10118000FC04002010B50B461446024600F010F98E
:101190002046BDE8104000F0E5B800002DE9F04F12
:1011A00087B0A2F120069DF844400293BDF840307C
:1011B00004939DF8483005936308019314F00E03DF
:1011C00018BF012303EB141363430393421E4B1E0A
:1011D000234402EB54029BB292B200900F460025CA
:1011E00000F0E6F8DDF80080F6B2A946039BAAB24B
:1011F0009A4206D2182C30D006D80C2C0AD0102CCB
:1012000027D007B0BDE8F08F202CFAD1244A02EB9A
:10121000861202E0234A04FB062212F805B04FF0C2
:10122000000A059B4BFA0AF202F00102E3B9CAB1C7
:10123000029800F097F809F101035FFA83F9019B26
:10124000B9FBF3F203FB129212F0FF0222D1914696
:101250001EE0154A02EB0612DFE7144A302101FBBB
:101260000622DAE70498E4E722B1029A39464046BA
:10127000FFF788FF009B08F101081FFA88F8A8EB28
:101280000302019B9A4205D10137DDF80080BFB20D
:101290000135ABE70AF1010ABAF1080FC1D1F7E74E
:1012A000343E0408B46D0408C4670408F455040807
:1012B0002DE9F04F85B004469DF83C80BDF838908C
:1012C0009DF840A00E461F46551E4FEA580B15F8D4
:1012D000012F12B905B0BDE8F08F2046CDE9018A93
:1012E000CDF800903B4631465C44FFF757FFA4B26F
:1012F000EDE7000030B5002387B0CDE9033300935C
:1013000005930E4B0E481A6B42F002021A631B6BD8
:1013100003F002030093009B4FF460740323012544
:1013200001A90493CDE90145FCF78CFF04482A4646
:101330002146FDF7CFF807B030BD00BF00380240AE
:101340000004024007B501238DF807001A460DF18D
:1013500007010348FEF774F803B05DF804FB00BF13
:101360005C05002007B540BAADF804000123022255
:1013700001A90348FEF764F803B05DF804FB00BF61
:101380005C05002010B5002204464FF400710748A8
:10139000FDF7A0F82046FFF7D5FFBDE81040034851
:1013A00001224FF40071FDF795B800BF0004024020
:1013B000F8B507462A200D4616461C46FFF7E2FF01
:1013C0003846FFF7CFFF3046FFF7CCFF2B20FFF763
:1013D000D9FF2846FFF7C6FF2046FFF7C3FFBDE849
:1013E000F8402C20FFF7CEBF431F5F2B9FBF034B5E
:1013F0001B6800EB4000D863704700BF84060020E4
:10140000024B1B680022DA63704700BF840600208D
:1014100008B5FFF76FFF674800224FF48071FDF7B2
:1014200059F8002280216348FDF754F86420FFF743
:10143000BAF8012280215F48FDF74CF86420FFF7DD
:10144000B2F81120FFF79EFF7820FFF7ACF83620A6
:10145000FFF798FF0020FFF775FF3A20FFF792FF94
:101460000520FFF76FFFB220FFF78CFF0C20FFF77E
:1014700069FF0C20FFF766FF0020FFF763FF3320B2
:10148000FFF760FF3320FFF75DFFB720FFF77AFF1C
:101490003520FFF757FFBB20FFF774FF1920FFF738
:1014A00051FFC020FFF76EFF2C20FFF74BFFC2203B
:1014B000FFF768FF0120FFF745FFC320FFF762FF3A
:1014C0001220FFF73FFFC420FFF75CFF2020FFF74B
:1014D00039FFC620FFF756FF0F20FFF733FFD0205C
:1014E000FFF750FFA420FFF72DFFA120FFF72AFFF1
:1014F000E020FFF747FFD020FFF724FF0420FFF78D
:1015000021FF0D20FFF71EFF1120FFF71BFF132007
:10151000FFF718FF2B20FFF715FF3F20FFF712FF03
:101520005420FFF70FFF4C20FFF70CFF1820FFF7A8
:1015300009FF0D20FFF706FF0B20FFF703FF1F2019
:10154000FFF700FF2320FFF7FDFEE120FFF71AFF62
:10155000D020FFF7F7FE0420FFF7F4FE0C20FFF782
:10156000F1FE1120FFF7EEFE1320FFF7EBFE2C201B
:10157000FFF7E8FE3F20FFF7E5FE4420FFF7E2FE1D
:101580005120FFF7DFFE2F20FFF7DCFE1F20FFF7C3
:10159000D9FE1F20FFF7D6FE2020FFF7D3FE232021
:1015A000FFF7D0FE2120FFF7EDFEBDE8084029201F
:1015B000FFF7E8BE000402401A28024638BF1E2189
:1015C000024828BF1921FFF740BC00BF7800002067
:1015D000F8B51A2800EB0105044634BF1E27192769
:1015E0001646EDB2AC4200D1F8BD22460448394659
:1015F000FFF72BFC013406F8010BE4B2F2E700BF61
:10160000780000201A280B46024638BF1E210248E7
:1016100028BF1921FFF7BBBB7800002037B5002396
:1016200001932A4B2A481A6B42F002021A631B6B81
:1016300003F002030193019BFFF773FC03241021C5
:101640002320FFF7DFFF0120FCF730F92F212020B6
:10165000FFF7D8FF0120FCF729F92020FFF7ACFFA6
:101660002F2809D00A20013CFCF720F914F0FF04D0
:10167000E5D1012003B030BD0120FCF717F90325A7
:1016800010210020FFF7BEFF0120FCF70FF9802199
:101690000120FFF7B7FF0120FCF708F90021022025
:1016A000FFF7B0FF0120FCF701F90220FFF784FFEC
:1016B000044618B9201E18BF0120DBE70A20013DAF
:1016C000FCF7F4F815F0FF05DAD1F3E70038024033
:1016D0007800002008B503210220FFF793FFBDE842
:1016E00008400F212020FFF78DBF08B50021022000
:1016F000FFF788FFBDE808402F212020FFF782BFB9
:1017000073B506460D46144606216A462820FFF7A3
:101710005FFFBDF800303380BDF802302B80BDF88C
:101720000430238002B070BD73B506460C461546E2
:1017300006216A460320FFF74BFFBDF800305BBA75
:101740003380BDF802305BBA2B80BDF804305BBA41
:10175000238002B070BD0000F8B502FB02F604461B
:1017600001FB016007EE900AF8EEE77A2DED068B9B
:1017700017EE900A08EE903A0D462DF0F1FC07EEB8
:10178000904AF8EEE77A014617EE900A2DF086FCB3
:10179000074604FB046007EE900AF8EEE77A17EEBE
:1017A000900A2DF0DDFC07EE905AF8EEE77A01463C
:1017B00017EE900A2DF072FC04462DF0D5FD0AEECE
:1017C000100A20462DF00AFE09EE900A38462DF048
:1017D00005FEF8EEE88ABDF9303008EE100A07EE93
:1017E000903A28EEA99ABDF93430F8EEE77A29EE5E
:1017F000089A3846A7EE8A9A0AEE103A2DF0B4FD00
:10180000B8EECAAA07EE900A28EE0A8A2AEE277ACC
:10181000A8EEA78AA9EEC79A18EE101A19EE100AB8
:101820002DF03CFCFAF74AFE094B0022FAF79EFE27
:1018300005A3D3E90023FAF7C3FFFBF731F9BDECA9
:10184000068BF8BDAFF300804AD8124DFB2109404A
:101850000080664013B50F4C94F8243083B14000EB
:101860008DF80700D4E900100DF10703C97B00785B
:10187000012200F0D7FF50B99DF80730637406E0ED
:10188000A37A23B10028EBD0637C002BE8D002B010
:1018900010BD00BF8400002013B5594CA37A1BB9BA
:1018A0004FF0FF3002B010BDD4E9001000238DF8D6
:1018B0000730C97B00780DF10703012200F0B2FF69
:1018C0000028EDD1D4E900100DF107034979007823
:1018D000012200F0A7FF0028E2D1D4E900100DF1A9
:1018E000070309790078012200F09CFF0028D7D176
:1018F000D4E90030197994F82430002B43D00C231C
:101900008DF8073000780DF10703012200F08AFFFF
:101910000028C5D13220FEF746FEC0238DF80730DF
:10192000A37AD4E90010DB0744BFE0238DF8073029
:10193000097900780DF10703012200F073FF0028F8
:10194000AED1637C003BD4E9001018BF01235B00DB
:101950008DF80730C97B00780DF10703012200F0F4
:1019600061FF00289CD18DF80700D4E900100DF12B
:10197000070349790078012200F054FF003818BFAE
:10198000012040428EE704238DF8073000780DF1E6
:101990000703012200F046FF002881D1A37C63BB2E
:1019A000A37A13F0010F0CBF40236023D4E9001089
:1019B0008DF80730097900780DF10703012200F056
:1019C00031FF00287FF46CAF3220FEF7ECFD637C22
:1019D000D4E90010003B18BF01238DF80730C97B04
:1019E00000780DF10703012200F01CFF00287FF4AE
:1019F00057AFD4E90010034BBBE74023D6E700BF45
:101A0000840000209400002013B5184CA37A43B141
:101A1000B0F57A7F0ED008D8FA2823D0B0F5FA7F37
:101A200022D04FF0FF3002B010BDB0F5FA6FF8D100
:101A3000182300E01023227A8DF80730B2EBD30F81
:101A40000ED0D4E900100DF1070389790078012246
:101A500000F0E8FE0028E4D19DF80730DB0823728F
:101A60000020E0E70023E6E70823E4E78400002005
:101A70000C4A537A032B12D8DFE803F00C02080A51
:101A800004230370D27C3AB9002070470823F8E79A
:101A90001023F6E70223F4E75B000370F4E74FF04E
:101AA000FF3070478400002013B5174CA37A33B180
:101AB00008280CD007D8022821D0042821D04FF0C4
:101AC000FF3002B010BD1028F9D1182300E0102318
:101AD000627A8DF80730B2EBD30F0ED0D4E9001044
